{
  "abi": [
    {
      "type": "function",
      "name": "addTraining",
      "inputs": [
        {
          "name": "trainingInfo",
          "type": "tuple",
          "internalType": "struct ITrainingsManager.TrainingInfo",
          "components": [
            {
              "name": "name",
              "type": "bytes32",
              "internalType": "bytes32"
            },
            {
              "name": "description",
              "type": "bytes32",
              "internalType": "bytes32"
            },
            {
              "name": "durationInMinutes",
              "type": "uint256",
              "internalType": "uint256"
            }
          ]
        }
      ],
      "outputs": [],
      "stateMutability": "nonpayable"
    },
    {
      "type": "function",
      "name": "getTrainings",
      "inputs": [
        {
          "name": "creator",
          "type": "address",
          "internalType": "address"
        }
      ],
      "outputs": [
        {
          "name": "",
          "type": "tuple[]",
          "internalType": "struct ITrainingsManager.TrainingInfo[]",
          "components": [
            {
              "name": "name",
              "type": "bytes32",
              "internalType": "bytes32"
            },
            {
              "name": "description",
              "type": "bytes32",
              "internalType": "bytes32"
            },
            {
              "name": "durationInMinutes",
              "type": "uint256",
              "internalType": "uint256"
            }
          ]
        }
      ],
      "stateMutability": "view"
    },
    {
      "type": "function",
      "name": "trainings",
      "inputs": [
        {
          "name": "",
          "type": "address",
          "internalType": "address"
        },
        {
          "name": "",
          "type": "uint256",
          "internalType": "uint256"
        }
      ],
      "outputs": [
        {
          "name": "name",
          "type": "bytes32",
          "internalType": "bytes32"
        },
        {
          "name": "description",
          "type": "bytes32",
          "internalType": "bytes32"
        },
        {
          "name": "durationInMinutes",
          "type": "uint256",
          "internalType": "uint256"
        }
      ],
      "stateMutability": "view"
    },
    {
      "type": "event",
      "name": "TrainingCreated",
      "inputs": [
        {
          "name": "name",
          "type": "bytes32",
          "indexed": false,
          "internalType": "bytes32"
        },
        {
          "name": "creator",
          "type": "address",
          "indexed": false,
          "internalType": "address"
        }
      ],
      "anonymous": false
    }
  ],
  "bytecode": {
    "object": "0x6080604052348015600e575f80fd5b506102fd8061001c5f395ff3fe608060405234801561000f575f80fd5b506004361061003f575f3560e01c80635898d0181461004357806377f6c91e14610076578063f1e823e214610096575b5f80fd5b610056610051366004610211565b6100ab565b604080519384526020840192909252908201526060015b60405180910390f35b610089610084366004610239565b6100e8565b60405161006d9190610259565b6100a96100a43660046102b1565b610175565b005b5f602052815f5260405f2081815481106100c3575f80fd5b5f91825260209091206003909102018054600182015460029092015490935090915083565b6001600160a01b0381165f90815260208181526040808320805482518185028101850190935280835260609492939192909184015b8282101561016a578382905f5260205f2090600302016040518060600160405290815f8201548152602001600182015481526020016002820154815250508152602001906001019061011d565b505050509050919050565b335f818152602081815260408220805460018101825590835291208391600302016101b782828135815560208201356001820155604082013560028201555050565b505060408051833581523360208201527f1e80e483f7da92147f26155e4c7fe167b8f08b8f9839de4b5fe9bab652f68c13910160405180910390a15050565b80356001600160a01b038116811461020c575f80fd5b919050565b5f8060408385031215610222575f80fd5b61022b836101f6565b946020939093013593505050565b5f60208284031215610249575f80fd5b610252826101f6565b9392505050565b602080825282518282018190525f919060409081850190868401855b828110156102a45781518051855286810151878601528501518585015260609093019290850190600101610275565b5091979650505050505050565b5f606082840312156102c1575f80fd5b5091905056fea2646970667358221220f805082d42456625767a5fd914c09d849d2b2ef6750d42934c5b614082412f7864736f6c63430008190033",
    "linkReferences": {}
  },
  "methodIdentifiers": {
    "addTraining((bytes32,bytes32,uint256))": "f1e823e2",
    "getTrainings(address)": "77f6c91e",
    "trainings(address,uint256)": "5898d018"
  },
  "id": 16
}