{
  "abi": [
    {
      "type": "function",
      "name": "addTraining",
      "inputs": [
        {
          "name": "trainingInfo",
          "type": "tuple",
          "internalType": "struct ITrainingsManager.TrainingInfo",
          "components": [
            {
              "name": "name",
              "type": "bytes32",
              "internalType": "bytes32"
            },
            {
              "name": "description",
              "type": "bytes32",
              "internalType": "bytes32"
            },
            {
              "name": "durationInMinutes",
              "type": "uint256",
              "internalType": "uint256"
            }
          ]
        }
      ],
      "outputs": [],
      "stateMutability": "nonpayable"
    },
    {
      "type": "function",
      "name": "trainings",
      "inputs": [
        {
          "name": "",
          "type": "address",
          "internalType": "address"
        },
        {
          "name": "",
          "type": "uint256",
          "internalType": "uint256"
        }
      ],
      "outputs": [
        {
          "name": "name",
          "type": "bytes32",
          "internalType": "bytes32"
        },
        {
          "name": "description",
          "type": "bytes32",
          "internalType": "bytes32"
        },
        {
          "name": "durationInMinutes",
          "type": "uint256",
          "internalType": "uint256"
        }
      ],
      "stateMutability": "view"
    },
    {
      "type": "event",
      "name": "TrainingCreated",
      "inputs": [
        {
          "name": "name",
          "type": "bytes32",
          "indexed": false,
          "internalType": "bytes32"
        },
        {
          "name": "creator",
          "type": "address",
          "indexed": false,
          "internalType": "address"
        }
      ],
      "anonymous": false
    }
  ],
  "bytecode": {
    "object": "0x6080604052348015600e575f80fd5b506101be8061001c5f395ff3fe608060405234801561000f575f80fd5b5060043610610034575f3560e01c80635898d01814610038578063f1e823e21461006a575b5f80fd5b61004b61004636600461013d565b61007f565b6040805193845260208401929092529082015260600160405180910390f35b61007d610078366004610172565b6100bc565b005b5f602052815f5260405f208181548110610097575f80fd5b5f91825260209091206003909102018054600182015460029092015490935090915083565b335f818152602081815260408220805460018101825590835291208391600302016100fe82828135815560208201356001820155604082013560028201555050565b505060408051833581523360208201527f1e80e483f7da92147f26155e4c7fe167b8f08b8f9839de4b5fe9bab652f68c13910160405180910390a15050565b5f806040838503121561014e575f80fd5b82356001600160a01b0381168114610164575f80fd5b946020939093013593505050565b5f60608284031215610182575f80fd5b5091905056fea26469706673582212203a11a025ac0e1370bb0ede4f947927490805a533cab9e3e628fd447108a8d8ec64736f6c63430008190033",
    "linkReferences": {}
  },
  "methodIdentifiers": {
    "addTraining((bytes32,bytes32,uint256))": "f1e823e2",
    "trainings(address,uint256)": "5898d018"
  },
  "id": 16
}